:100000000C942A000C943F000C943F000C943F0089
:100010000C943F000C943F000C943F000C943F0064
:100020000C943F000C943F000C943F000C943F0054
:100030000C943F000C943F000C943F000C943F0044
:100040000C943F000C943F000C943F000C943F0034
:100050000C943F0011241FBECFE5D8E0DEBFCDBF1A
:1000600010E0A0E6B0E0EEE2F1E002C005900D92F3
:10007000A836B107D9F70E948E000C9495000C9415
:100080000000D89885BBD99A2FEF81EE94E02150DB
:1000900080409040E1F700C00000D99808958FEFAC
:1000A00084BB8AB383608ABB88E30E9441008FE9E6
:1000B0009FE00197F1F700C0000081E00E9441003D
:1000C0008CE00E9441009FEF21EE84E0915020409F
:1000D0008040E1F700C0000008950097F1F0FC01B6
:1000E0009C01220F331F919195BBD89AD99A4FEF5B
:1000F00081EE94E0415080409040E1F700C0000064
:10010000D9984FEF81EE94E0415080409040E1F764
:1001100000C00000E217F30731F708950E944F0076
:0E01200080E690E00E946D00FBCFF894FFCFC8
:08012E007961736D696E6500D3
:00000001FF
